:10000000C80E0020C50E000051240000810E000023
:1000100000000000000000000000000000000000E0
:100020000000000000000000000000004D0D000076
:100030000000000000000000ED0C000011160000A0
:10004000BD0D0000BD0D0000BD0D0000BD0D000088
:10005000BD0D0000BD0D0000BD0D0000BD0D000078
:10006000BD0D0000BD0D0000BD0D0000BD0D000068
:10007000BD0D0000BD0D0000BD0D0000BD0D000058
:10008000BD0D0000BD0D0000BD0D0000BD0D000048
:10009000BD0D0000BD0D0000BD0D0000BD0D000038
:1000A000BD0D0000BD0D0000BD0D0000BD0D000028
:1000B00002B4714649084900095C49008E4402BCFB
:1000C0007047C04603B47146490840004900095EC4
:1000D00049008E4403BC7047002934D0012300221C
:1000E00010B488422CD301242407A14204D28142B7
:1000F00002D209011B01F8E7E400A14204D28142C7
:1001000002D249005B00F8E7884201D3401A1A4343
:100110004C08A04202D3001B5C0822438C08A0427A
:1001200002D3001B9C082243CC08A04202D3001B30
:10013000DC082243002803D01B0901D00909E3E7AA
:10014000100010BC704701B5002000F00BF802BD94
:100150000029F8D003B5FFF7C1FF0EBC4243891A4E
:100160001847C0467047C0461C2101231B04984213
:1001700001D3000C10391B0A984201D3000A083938
:100180001B09984201D30009043902A2105C4018EF
:100190007047C04604030202010101010000000093
:1001A00000000000002B11D1002A0FD1002900D13E
:1001B000002802D00021C943080007B4024802A168
:1001C0004018029003BDC0469DFFFFFF03B4684680
:1001D00001B5029800F04CF8019B9E4602B00CBCA1
:1001E0007047C046D0400B00D1409C46203AD340D7
:1001F00018435242634693401843704791400300AE
:1002000090409C46203A9340194352426346D34063
:100210001943704710B5002903D1FFF7A5FF20301F
:1002200002E00800FFF7A0FF10BDC046F7B5040CC0
:100230000D0091B20F0061438C460600019383B21A
:10024000100C5F43444358433B0C60441B189942D5
:1002500002D9802149026418019955437143180C51
:1002600004191B04BFB24919D819091903B0F0BD0C
:10027000F0B506000F0015001C0085B08B4263D856
:1002800001D1824260D821002800FFF7C3FF390066
:1002900000903000FFF7BEFF009B21001B1A1A00E0
:1002A00028000393FFF7AAFF00900191B94245D8B7
:1002B00001D1B04242D8009B019C01200021039A49
:1002C000F61AA741FFF79AFF04000D00039B002BCD
:1002D0002BD0019B009ADB0750081843019B59085B
:1002E000039B9C46B9422CD801D1B04229D8320098
:1002F0003B00121A8B41012692185B410027B61869
:100300005F4101235B429C446346002BEAD13000ED
:100310003900039AFFF766FF039AA4197D4106008E
:100320000F00FFF76BFF241A8D410A9B002B01D0B1
:100330001E605F602000290005B0F0BD002400258C
:10034000C4E7B6197F41DCE700240025EDE7000093
:1003500010B50449044801F0A2FF0021034801F050
:10036000AFFDF6E7582C0000662C000010270000B7
:1003700010B5024B1B68984710BDC0460000002016
:10038000014B18607047C0460000002013B50B00F9
:100390000021034C02000091200000F003F813BD7F
:1003A00071030000F0B51C00002799B0049005917E
:1003B0000892089B1878002801D1380027E3089B91
:1003C00001330793252807D00599049B98470028F7
:1003D00000DA1CE30137E3E112AD18220021280006
:1003E00002F058F8089B5B78252B14D1089AEB7221
:1003F0000232079212AB5A7AD10700D47FE102CCC5
:100400000391002900DB7FE10421187A014319726E
:10041000039B5B4277E10022012615001000944601
:100420000392079B1B782B2B6FD068D8202B71D0A1
:10043000232B71D0002A05D012AE327A110040224F
:100440000A433272002D04D0202212AD2E7A32439C
:100450002A72002804D0102212A8057A2A430272B8
:10046000039A002A04D0082212A9087A02430A72C9
:100470006246002A04D0042212A9087A02430A72B2
:10048000442112A8027A1140442902D140218A4312
:1004900002728022017A52420A43027200210A2526
:1004A000079A2A2B40D1417A293B0B4301324372F0
:1004B0001578022629002E394B42594112A8437A59
:1004C0004900B3430B4343722E2D45D153782A2B59
:1004D0003DD00023013208361178551C0800303811
:1004E000092863D912A916930D7AA8071843022385
:1004F0009D432B00C00F400003430B722CE02D2BBB
:100500000CD0302B96D1320000E00396079B0133CC
:10051000079386E73000F9E73500F7E7B446F5E7DB
:1005200032006943303959181378561C1800303896
:100530000928F5D9079B9342BAD0022512AB187A45
:100540001591C90F4900A84301431972B0E704236C
:10055000417A02320B434372117812AB6C2945D0B9
:1005600029D8682930D06A294CD04C2954D0117828
:10057000531C12AA0793D172537A782900D9B9E093
:100580006D2950D8692900D9B4E0572966D8412986
:1005900003D04539022900D9ACE0072312A98A7A91
:1005A0009A43033B13438B72012373E07343303B45
:1005B0002A005B1890E7742929D07A29D7D17821AD
:1005C000587A884348390DE050787821682806D158
:1005D000587A88437039014359720232C7E7587A12
:1005E00088431021014359720132C0E750787821C5
:1005F0006C2803D1587A88435839ECE7587A8843F5
:100600001821EFE77821587A88435039EAE77821B2
:10061000587A88434039E5E71889A5490840A54933
:1006200001431981E0E7012005006E39C9B28D4010
:100630002900A14D294238D12425294251D1014216
:1006400058D00721907A8843043901439172782267
:100650001340403B5A425341DBB21BE001200D00E6
:100660000600583DEDB2AE403500E2263602354276
:1006700093D1924E354222D1842189020D4239D044
:100680000725917AA9430143917278210B40402BB1
:1006900011D0002312AA117A8807C00F0343022049
:1006A0005B00814319431172A4E60721957A8D43BB
:1006B00005392943E8E7137A03431372E9E707256D
:1006C000967AAE43053D3543957278252B40402BF5
:1006D00002D1157A284310726329DAD15A1E934148
:1006E000BAE70721907A884304390143917278224E
:1006F0001340F3E7012312AA117A0B43DDE7197ABD
:100700007F290FD9DB68039312AB51070CD504CCBA
:100710000692002A0CDA02215A7A8A435A7201237D
:100720005B4204E0012374E69207F8D51B69069347
:10073000002512A98B7A4A7A5B0752065B0F120FCB
:10074000CD600D61012B30D1D01E042804D8FFF7F5
:10075000AFFC0E45450E0E002368D8171293486073
:10076000012A09D15BB21293DB174B6006E008CC7B
:100770001293DB174B6002E0022A14D0043412A952
:100780000B7A03201D000540034245D0079B089AC1
:100790000599049801F0E5FD002800DA37E13F18DB
:1007A000079B089305E61BB2DDE7022B25D1D01E7F
:1007B000042804D8FFF77CFC0D121219190008CC8C
:1007C000012A16D012934D609BB2022AD7D1129300
:1007D000D5E708CC129300231393D0E707230734FF
:1007E0009C4303CC12901391C9E708CC12930023C9
:1007F000C0E7DBB212934D60C1E7042B08D1073488
:1008000003339C4320686168083412901391B6E763
:10081000032BB4D108CCDAE7C87A7828C0D862288C
:100820002BD8252800D1CFE55828B9D11298139993
:100830001E230AAA9B18009314AA0CAB01F044FDD6
:10084000069B0600002B0DDB1E2340200AAA9B18E6
:1008500012AA117A9B1B814311720699994201D900
:10086000CB1A1593002E9BD01E230AAA9B18981B07
:100870000693002D32D0013030E0633815288FD830
:10088000FFF720FC5E0068008EFF8EFF8EFF8EFF5C
:1008900068008EFF8EFF8EFF8EFFA0007A007C0026
:1008A0008EFF8EFF1E008EFF7A008EFF8EFF7A0075
:1008B000FD87FFFF024000008204000001080000E5
:1008C000069B129E002B37DB1900300001F0CFFD94
:1008D000331800250693002E00D161E712AB9B7AF6
:1008E0001022190011400B91134200D185E0023013
:1008F000159A0A9280185B0601D5169BC018039BB7
:10090000002B00DC94E01B1A039312AB1B7A5A07EE
:10091000D10F0891002A00DA8AE05B0600D478E063
:10092000002D07D028000599049B984700286EDB0E
:10093000089D013730236DE0300001F090FDC7E7DE
:100940000923129A0CAE32700AAA9B1800250120C6
:100950000693C3E72B251A0702D4DB06DB0F5D01E4
:10096000129A139B002B00DB60E700215042994153
:100970002D251290139159E7002557E7129812ADD3
:10098000002834D01E230AAA9B18009314AA0CAB8B
:10099000002101F099FCEF236A8906001A40484BB8
:1009A00013436B810025069BAB4200DB4CE7A8425A
:1009B00000D1F5E61E230AAA9B18181A1E239B18BD
:1009C00006938BE7129B072A00D9E9E61000FFF790
:1009D0006FFB0C04060C08080C0C1F70E0E61F806F
:1009E000DEE6FA171F605A60DAE61F60D8E6354B7C
:1009F0000500354E0520069370E71A07D20F8018C0
:100A000076E705990998049B9847002805DA19B0FC
:100A1000F0BD20230993039B0893089B1A00013A19
:100A20000892002BEDDC039AD719FF1A089B039359
:100A3000002D06D028000599049B98470028E6DB86
:100A4000013712AB9B7ADA0601D41B0706D530209A
:100A50000599049B98470028D9DB01370B9B002B95
:100A600007D012ABD87A0599049B98470028CEDBB3
:100A700001373D0006E030200599049B9847002887
:100A8000C5DB01350A9BDB195B1B002BF3DC320055
:100A9000069B0599049801F064FC0028B7DB471910
:100AA0003D00039B5B19DB1B002B00DC78E620205C
:100AB0000599049B98470028A9DB0137F1E7C04658
:100AC000107800008D2C0000882C0000024A53781A
:100AD000DB09FCD17047C046000C004070B5EFF355
:100AE000108672B61E233849384C4A689A431C3B1C
:100AF00013434B60236A364A134080222362236AE1
:100B00009343FE222362334BD2031B689B021340A4
:100B1000314A1343A361E3685B07FCD52F4BA382E3
:100B20000223A28A1343A382E3689B07FCD5012317
:100B30002B4DAB60FFF7CAFF2A4B6B60FFF7C6FF78
:100B40008223DB016B80FFF7C1FF0223A384E368EC
:100B5000DB06FCD5244BE362E368DB06FCD5A28C04
:100B6000224B1343A384E368DB06FCD50223A28C4B
:100B70001343A384E3681B06FCD5E3685B06F9D541
:100B8000E368DB06FCD50024AC60FFF79FFF184B41
:100B90006B60FFF79BFF174B6B60FFF797FF164BE0
:100BA000AB60FFF793FF154B6B60FFF78FFF144BA4
:100BB0001C725C729C72DC72A64202D162B6BFF3F8
:100BC0006F8F002070BDC04600400041000800400B
:100BD000FFFCFFFF24608000060600000C060000FA
:100BE000000C004001050100B905FF7D040A00006A
:100BF0000007030003060100021F000002040100B9
:100C000000040040014910220A60704710ED00E026
:100C1000BFF34F8F30BF62B6BFF36F8F7047C046D0
:100C200043B2000605D41F221A4001239340014A13
:100C30001360704700E100E030B5FF2503220B0090
:100C4000290040B20240D20091409B012B40C94391
:100C5000934000280ADBC0240A4A800880008018DC
:100C6000A40002590A401343035130BD0F22104023
:100C70000838054A800880008018C269114019436D
:100C8000C161F2E700E100E000ED00E030BFFDE708
:100C9000FF22084B10B59343074A9360BFF34F8F71
:100CA000BFF36F8F00F0D2FD01F084F900F0F2F88D
:100CB00000F00CFE0000000000ED00E0084A0949C9
:100CC000936809689866D966802307495B05486878
:100CD00003434B6062B6BFF36F8F9368D86E704763
:100CE000900100203C2C000000ED00E013498A68D0
:100CF00013481044EFF3098CF0C043464C46554668
:100D00005E466746F8C072B60E4F0F4E8A698A601B
:100D10003E60906E00239366002800D162B6084CB6
:100D200010191030F8C89846A146AA46B346BC46EA
:100D30002438F0C88CF30988704700009001002027
:100D40003000000004ED00E00000000804207146BF
:100D5000014202D0EFF3098001D1EFF308808169ED
:100D6000023909780229FFD001B501F065FB01BD08
:100D700010B5203A1360029B01245360039B06497F
:100D80009360049BA143D36080235B04D361002361
:100D900091610265836610BDB5220000064B986024
:100DA000101C81F30988002162B6BFF36F8F002207
:100DB000002301F07FFAC0469001002001B5EFF357
:100DC00005800549401AC0000449014409C99847F3
:100DD00009BC9E460249084710000000F0290000A7
:100DE000E50D0000044B99689869884202D00349D8
:100DF000034A0A60704700009001002004ED00E003
:100E00000000001070B51B4B0C005B6888B0DB0560
:100E1000DB0D62B6BFF36F8F0025160E2900FF2E83
:100E200009D1F33E1640082E05D001000135120706
:100E300001D5210000250024032B06D18B69023B3C
:100E40001A880D4B9A4200D10C682022684601F0A6
:100E500018FB079B002D0AD0DA0502D1074A13437D
:100E600007936946200001F0E3FA08B070BD5B0A01
:100E70005B02F5E700ED00E002DF0000FF0100008B
:100E8000EFF30880EFF3098101B57246FFF7BAFF6F
:100E900001BDC046F0B5C02400220326FF25A400F2
:100EA00010002F003040C0008740054993089B0088
:100EB0005B1819590132B94319511C2AF0D1F0BD00
:100EC00000E100E072B607480749401880F309883E
:100ED000EFF314800221084380F31488BFF36F8F6F
:100EE000FFF7D6FEC80100200008000010B50A4B2D
:100EF0009B6883420DD1EFF30583002B09D080223C
:100F0000064B520559680A435A605A6A04490A4016
:100F10005A6200F0F3FF10BD9001002000ED00E0E8
:100F2000FF7FFFFF014B18607047C04604000020A0
:100F3000024A5378DB09FCD17047C04600180040D4
:100F4000F8B500250F4A066913699CB2DBB214613B
:100F5000AB4201D1240A08350127002C00D1F8BD8D
:100F60003C420CD0380073191A7C53069B0FDB00EF
:100F7000D206F318D20E904059681A689047640858
:100F80000135EAE700180040402310B50B4A042061
:100F900091690B4393610A4B0A4A5A80002211005F
:100FA000FFF74AFE0420FFF73BFE0223064A1178B2
:100FB0000B431370FFF7BCFF002010BD000400407E
:100FC000000C0040054000000018004010B5094B1F
:100FD00004009B181B7C00207F2B09D95A06920F16
:100FE000944205D1D806C00E401A43425841C0B2BF
:100FF00010BDC04608010020F0B585B003933D4BFD
:10100000019242019B185D5CFF2D00D16FE0EFF370
:10101000108372B60222384C0293237893432370D4
:10102000364B5B191B7C7F2B16D95A06920F8242D6
:1010300003D1DB06DB0E8B420ED002232278134352
:101040002370FFF775FF029B002B02D162B6BFF33E
:101050006F8F1020404240E0284B0A9EC700FE5090
:101060000B9EDF197E601F2603270E40802138402B
:10107000494231430722400108435B1918740F208D
:101080002A40920090401C4BE9108900C9188B69D6
:101090008343019804280CD8FFF70AF803070921B5
:1010A000230001209040034303E00220FAE7974029
:1010B0003B430398002802D00820904003438B61F3
:1010C0000223227813432370FFF732FF0123AB4042
:1010D0002361029B002B06D0002005B0F0BD042048
:1010E000E0E70520DEE762B6BFF36F8FF4E7862006
:1010F000B0E7C0469B2C000000180040080100200B
:10110000F7B51F4B42019B185C5C0E000190FF2C51
:1011100033D0EFF3108772B602221A4D2B78934327
:101120002B70FFF705FF220031000198FFF74EFFFB
:10113000002814D07F200122134BA2401B19197CD8
:10114000014078381974E3100440A4000830A0402E
:101150009B005B19996981439961AA602A61022306
:101160002A7813432B70FFF7E3FE002F01D00020F5
:10117000FEBD62B6BFF36F8FF9E786204042F7E706
:101180009B2C000000180040080100200B4B42017E
:101190009B1810B55C5CFF2C0BD02200FFF716FFEC
:1011A000002809D00123A3400020054A1361D36021
:1011B00010BD86204042FBE71020FBE79B2C00007F
:1011C000001800400B4B42019B1810B55C5CFF2CD3
:1011D0000BD02200FFF7FAFE002809D00123A3401C
:1011E0000020054A9360136110BD86204042FBE752
:1011F0001020FBE79B2C000000180040F7B50F4BB8
:1012000001901D69002318000D4E0E4FF25C7F2ADD
:1012100010D9FA18127C01995406A40F8C4209D1F6
:101220002C000121DC400C4204D00C00D206D20E6E
:10123000944020430133102BE8D1FEBD001800403C
:10124000180100200801002010B5084801F0A9FA93
:10125000002808D0064C2000FFF764FE2000FFF7AE
:101260008FF8002010BD13204042FBE7A8290000A2
:101270007512000070B50400074D0A2804D1AB6850
:101280000D2128005B689847AB6828005B68E1B2D5
:101290009847200070BDC046A8290000F0B585B071
:1012A0001700029380234668026975680C0069186C
:1012B0004031097850603548C9B23840DB03984264
:1012C0001FD080239B039F4202D01620404216E08D
:1012D000012399430391307A2100FFF773FF030044
:1012E0001022103393430AD12100307AFFF708FF10
:1012F000002804D16B462D191B7B40352B7005B09F
:10130000F0BD880740D528680123E04018423BD152
:101310001800084361086918039030310F201C42FF
:1013200028D00B78184008708021029BC9048B429A
:1013300024D0C021C9048B4224D0802189048B424F
:10134000C3D180230121DB039F4200D10331936885
:101350000120E3400340307A01920D4A00920A00D6
:101360002100FFF749FE0028C9D12100307AFFF79C
:101370000DFFBDE70B7883431800D4E780230021DD
:10138000DB03E1E70221E2E786209FE7FFFFFFFEA4
:10139000C9250000F0B5036985B001938023456835
:1013A0000090AA8ADB0113432D4A2C6853802D4AF2
:1013B0002969136A20000B431362BF23237501F0D0
:1013C0001CF9AA68284B20001343236001F015F98B
:1013D0000021E86903AA01F0D0F900283BDB039B58
:1013E00000221979186800F0C7F9002833DB019A48
:1013F0001E4B20005360013BFF3B636001F0FDF892
:1014000069681B480B0B0A0500218018594100230D
:10141000184AFEF7C7FE01267642F71702000B00B6
:10142000B6185F41002F18D113498E4215D8524289
:1014300092B22000A28101F0E0F86B68019A009856
:101440001360AB699847022322682000134323608E
:1014500001F0D3F8380005B0F0BD22204042FAE791
:10146000000C004000040040040000600001030084
:1014700000366E01006CDC02FEFF0000F0B503696F
:1014800085B0019343680D001C68200001F0B5F899
:101490000222236820009343236001F0AEF8EA792A
:1014A000002A0DD1019BDA7121686668B304DB0F55
:1014B00002932B79012B06D0022B07D0002B03D0EF
:1014C0008620404259E002931A0001E00292012274
:1014D000019803716B79012B51D00120032BEFD1BF
:1014E000039001984371AF79042FE9D8264B120677
:1014F0001940114387712000216001F07EF8039BA1
:1015000007219A013B000B4005330B401343029A1D
:101510002000520313431D4A32401343360C9BB242
:1015200036041E43666001F068F82B68184A190BF0
:1015300018050023801859410023164AFEF732FE91
:1015400001267642F71702000B00B6185F41002F04
:1015500017D111498E4214D8524292B22000A28172
:1015600001F04BF82B68019A2000136002232268D7
:101570001343236001F041F8380005B0F0BD0020AE
:10158000AEE722209DE7C046FFFFFFF0B8DFFFFF78
:1015900000366E01006CDC02FEFF000030B50A4B25
:1015A0000A4A986819680A4D9C68C90301D4A04288
:1015B00004D211682868091811601B682B6810682C
:1015C000C018001B30BDC04610E000E080010020C4
:1015D0008C0100200020094A136A1B021B0A1362B7
:1015E000074B084A1A60084B1860084B5A600722DC
:1015F000986019680A431A607047C04600ED00E021
:101600008C010020BF1200008001002010E000E0EB
:1016100070B5FFF7C3FF0C4B0C4A186811680C4CEF
:10162000401810609621002225681A604901401B6D
:10163000FEF752FD96235B0143435B19236000F0E4
:101640009DFDFFF7CFFB70BD8001002088010020C9
:1016500084010020F0B5334D334F85B0002956D0BA
:10166000431C08D101222B6893432B60FF231B06E8
:101670003B6005B0F0BD3B6801930026012804DD06
:101680002A4B1E00984200DC461EEFF3108372B610
:101690000393FFF783FF0022AB680293244B1C687F
:1016A000244B04191A60244B1B680093E01A9042E3
:1016B00033DB96235B015E43204A801919008018B2
:1016C000FEF70AFD96235B015843009B1B1B18186D
:1016D0008023DB00984223D9194B984220D800235D
:1016E00038600138A9686860AB60029B02985B1A99
:1016F0001A19884202D2019A9B181A190C4B1A60C7
:10170000039B002BB5D162B6BFF36F8FB1E73B6887
:101710000193431CB1D10548B6E78020C000DEE745
:101720001800DCE710E000E08C010020A60D0000AE
:10173000880100208001002084010020BF120000E9
:1017400080E8FF0010B5EFF3108472B6FFF726FFB4
:10175000074B084A1B6812689B1A1818002C02D104
:1017600062B6BFF36F8F96214901FEF7B5FC10BD3D
:101770008801002084010020F0B504001F278900A3
:1017800085B04518AC4202D1002005B0F0BD0F2055
:1017900023680D491A0C02409200515830301A0D3E
:1017A0001E013A401840760F012E04D11B0F1B0476
:1017B000034340201843039001A80191029204348E
:1017C00000F000FEDEE7C046342C0000F7B501272C
:1017D000104E830001309C5983000193019BF35804
:1017E000A34200D8F7BD6568236828009847002DFC
:1017F0000DD0002807D0C2178018EB685040FF2892
:1018000000DDFF201870EA6853783B4353700834BA
:10181000E4E7C046402C000010B50124094B03202A
:101820001C70FFF7D3FF00F02FFD0420FFF7CEFF61
:1018300000F0CEF8FEF78CFD034A137BA34313732D
:1018400010BDC046C40100209000002010B5034A1E
:1018500003480021121A00F0CEFF10BDC80100207D
:101860002000002070B570260125040046430102C7
:10187000114880220918002086B004950E35039582
:10188000093565430D4B0590029001900C48F61800
:101890002D180C4B30000095520000F06FF8042218
:1018A000737B2C75934373730134074BE402E41884
:1018B000EE606C6006B070BDC809002020000020FA
:1018C0009001002007280000C8010020F0B500208A
:1018D000A3B0FFF77BFF214B83F308882049214BFE
:1018E0000A6A00251A40C0231B0413430B6200F050
:1018F000B5FDFFF787F902221B4E06ABFF329A8136
:10190000B3601F9500F04CFF0120FFF75FFF02203E
:10191000FFF75CFF00F044FA144C154BB4618022D1
:1019200005930123134E14490493D2003300200081
:10193000039502950195009500F020F80422070018
:10194000637B20009343637300F093FF2800FFF74D
:1019500089FF320039002000FFF720FAC809002073
:1019600000ED00E0FFFF00FF90010020900000204C
:10197000272D000019180000C80A00207FB50400B8
:101980005830A065E0650C98002620730420607331
:101990000B980732A073072082438D180A9AA6601D
:1019A000E673A661E6610292099A20000192089A04
:1019B00000922A00FFF7DCF9044B66659B68B3428E
:1019C00000D05B6E2800636604B070BD90010020FB
:1019D00070B5204C86B026001F4DAC4208D300F0F5
:1019E000B9F93400AC4219D300F0C4F906B070BDA7
:1019F000E36A0593236A0493E3690393A36902935B
:101A00006369019323690093E368A26861682068B1
:101A1000FFF7B4FF23685C653034DDE7636A5A1C66
:101A20000FD0D843C01718400A220023C117FEF771
:101A3000FDFB26680B000200014304D1300000F0DA
:101A400043F93034CEE730000449183000F020FB71
:101A5000F7E7C046D02A0000D02A00003B2800004B
:101A600070B5074D2C68002C08D0FFF76BFE054BB6
:101A70002418002128681C6100F02FFF70BDC046AB
:101A8000BC0100209001002070B50E4D0E4BEC699A
:101A90009C4201D0002C00D1EC68AB68002808D132
:101AA0005A7BD20605D1A269002A02D1DA897F2A9F
:101AB00005D89C4202D02000FFF7D2FF2300AB6183
:101AC00070BDC04690010020AC0100200D2270B511
:101AD00082560400437B002A04DA7F2213404373BA
:101AE00000F098FE8023627B5B421343134A6373CA
:101AF000D3691348834200D10023116A002B04D11B
:101B0000206061600C6014620CE00E250E266557A3
:101B10009E57B5420DD0AE420BDD5968236061601F
:101B20000C605C609068001B43425841FFF7ACFFBB
:101B300070BD9942E4D01B68E0E7C04690010020E8
:101B4000AC0100200D2370B5C356417B002B26DB72
:101B5000CB0624D18369002B21D1802252420A4333
:101B60004273114A114CD169A14200D00B00116A95
:101B7000002B04D104604160086010620CE00E2567
:101B80000E2645579E57B5420AD0AE4208DD5A6828
:101B900003604260106058600020FFF775FF70BD61
:101BA0008B42E7D01B68E3E790010020AC010020E6
:101BB0000D2210B582560400437B002A04DA7F22EE
:101BC0001340437300F026FE034B9868001B43420A
:101BD0005841FFF759FF10BD9001002010B5EFF3F9
:101BE000108472B60A234343002802DD022B00DA78
:101BF00002230020074A106107480360074B9068E2
:101C00001960FFF72DFF002C02D162B6BFF36F8F72
:101C100010BDC04690010020BC010020B80100208A
:101C200070B5EFF3108572B6174B184A9C681168AF
:101C30008C4208D12000FFF713FF002D02D162B6BD
:101C4000BFF36F8F70BD00211160114A12688A4284
:101C500018D0E2897F2A15D8627BD20612D10E21D4
:101C60000C4A6156126891420CDB0B4A944209D02F
:101C70001A69824203DC2000FFF728FFDAE7121A14
:101C80001A61DAE70022FBE790010020B40100208E
:101C9000BC010020B80100202000002010B5002960
:101CA0000AD1EFF30580002807D1064B9A689B699B
:101CB0009A4202D0FFF702F810BD62B6BFF36F8FF1
:101CC000FAE7C0469001002010B5EFF3108472B619
:101CD0000422437B134205D1002C02D162B6BFF32C
:101CE0006F8F10BD93434373FFF72CFF2100024811
:101CF000FFF7D4FFF5E7C046C501002070B504002A
:101D0000183000F0D7FDEFF3108672B60D22A25600
:101D1000637B002A05DA7F2213402000637300F002
:101D200079FD10230A4D627BA8681343001B63737F
:101D300043425841FFF7A8FE002E02D162B6BFF31E
:101D40006F8FAB68A34201D100F0ADFD70BDC046FE
:101D500090010020EFF3108172B6054B9A68D37B97
:101D6000013BD373002902D162B6BFF36F8F704776
:101D70009001002010B5EFF3108472B6074B0020DD
:101D80009A68D37B0133D373FFF77EFE002C02D118
:101D900062B6BFF36F8F00F086FD10BD900100208A
:101DA000002110B5034B044A0800DA611A62FFF7FC
:101DB00015FF10BD90010020AC010020F8B5EFF335
:101DC000108572B67F22194CA068437B1340437381
:101DD00000F020FD8022A3685242597B14480A4338
:101DE0005A73E269824200D10022216A002A04D19A
:101DF000186059600B6023620CE00E260E279E5778
:101E0000D757BE420DD0B7420BDD51681A605960FA
:101E10000B6053600120FFF737FE2800FEF74EFFEE
:101E2000F8BD8A42E4D01268E0E7C0469001002085
:101E3000AC0100200300F7B50B4304000D00002B9C
:101E400003D1FFF7BBFF0020FEBD4B1C2EDB4B1C5C
:101E500001D1831C2AD300F057FD2718EFF310831C
:101E600072B6144E0193B068134B1860FFF7A0FED2
:101E7000B06822002B001149183000F009F9102336
:101E8000B2680198517B0B435373FEF717FF00F0C4
:101E90003BFD00233A0004001D00121BAB41AB4286
:101EA00002DCD0D1AA42CED01000CDE702277F427B
:101EB0003F1BD3E790010020B40100203B28000025
:101EC00010B50B000C00421C07D1013305D1074BA4
:101ED0009868FFF713FF200010BD2100FFF7AAFF4D
:101EE0000A220023C117FEF75DF9F5E790010020F3
:101EF000014B98687047C0469001002070B50400FF
:101F0000EFF3108672B6037BDB0708D5002E02D1F3
:101F100062B6BFF36F8F042062B602DF70BD082384
:101F2000427B1A4205D0002EF8D162B6BFF36F8F04
:101F3000F4E72021100088430100194348B200282B
:101F400020DB6173A368002B02D0200000F06AFC44
:101F50002000183000F0AEFC2300A56D58339D42E0
:101F600001D0002D16D10120FFF78EFD104B9B688C
:101F7000A342D8D1EFF30583002BD4D13000FEF774
:101F80009DFED0E75F210A4013432000637300F0F9
:101F900041FCD7E7280000F045FC2800183000F08D
:101FA00089FC00232800EB66FFF7CCFDD4E7C04690
:101FB0009001002010B50648064A0749121A00F0A1
:101FC0001EFC064A0649074800F019FC10BDC04631
:101FD000000000201C000020742D00000000000004
:101FE000742D000000000020002010B5034B1B687A
:101FF000834201D1FFF7A6FB10BDC046C0010020FF
:1020000070B5124B1E689E420AD1FFF7EDFF1048D3
:10201000104B1B69002B02D0984200DD180070BDE8
:10202000FFF7E2FF002EF2D0326973690400C51792
:10203000121BAB41002BEADC03D1802109068A4246
:10204000E5D2D843C0171040E2E7C04608000020A0
:10205000FFFFFF7F9001002030B500280ED00B4B12
:102060005B6898420AD00168002907D00A694B6969
:102070000469456912196B410A614B610368426842
:1020800013605A6000230360436030BD08000020E5
:10209000F7B5040016001F00531C01D17B1C5DD056
:1020A000A160EFF3108372B60193002F23DA7B1C3B
:1020B00001D1B31C1FD82E4B186859680222524216
:1020C000D317121A8B41921BBB41002B04DC01D1A8
:1020D000002A01D101220023264F226163613D685D
:1020E000BD4200D100257E68002D0FD127606660BB
:1020F00034607C601CE0FFF777FF01220023921917
:102100007B410600C71792197B41E5E72869696999
:1021100022696369994202DC21D190421FD9801A59
:1021200099416B6828616961636025601C606C601F
:102130003B68BB420CD09C420AD1FFF761FF0028EC
:1021400003D00D4B1B69834202D00021FFF782FAB6
:10215000019B002B02D162B6BFF36F8FF7BD121A3D
:102160008B4122616361B542C0D02D68BCE7C04697
:10217000000100200800002090010020F0B585B08B
:102180000400FFF74DFDEFF3108372B60293304B5E
:102190001C60304B1C689C4200D100242E4B2C4DFF
:1021A0000393186859682B689C46002C39D06269E3
:1021B0002669DB179A4202DC0AD1664508D91F005E
:1021C000226963696646921BBB412261636128E014
:1021D000F31700960193009A019B80185941002340
:1021E00000221D4F22616361386079602000FFF793
:1021F00033FF029B002B02D162B6BFF36F8F20002A
:10220000A3689847EFF3108372B60293104B1A68D5
:10221000921B1A600F4B94461C689C42BED13868D2
:1022200079686246D31712184B41002403992C6039
:102230000A604B60FFF7E4FE2100FFF70BFA029BF8
:10224000A34202D162B6BFF36F8F05B0F0BDC046A6
:10225000C0010020080000200001002010B5EFF3AD
:10226000108472B6FFF7C0FE02000649C317086863
:10227000496880185941002C02D162B6BFF36F8FB4
:1022800010BDC0460001002010B5024800F007F85C
:1022900010BDC0462F2D00007047002070470FB4BE
:1022A00007B504A901C90191FEF770F803B008BC95
:1022B00004B0184710B50400080011001A00A04728
:1022C000FFF716FEFEF712FEF0B585B001900393FE
:1022D000D37815001A00413A0F00082402926F2BA0
:1022E0000AD004D82419582B06D0063C04E0082252
:1022F00010249343702BF8D10A9E2200002339004A
:102300000198FDF74FFF13008C46D2B2092B1AD863
:102310003032D3B2013E33700023BB4202D1019B65
:102320009C4202D8039B9E420AD82B789B0604D578
:10233000082C10D1AB782343AB70300005B0F0BD52
:1023400067460190D9E7130002995733DBB2192988
:10235000E0D83732DDE7102CEFD1AB781C43AC70FE
:10236000EBE7F7B5070015001E0014000191A64227
:1023700006D8002E01D0601B08E02378002BFAD08D
:1023800020780199B84701340028F0DAFEBD704783
:1023900070B50F254B08C3182A403033CC070DD534
:1023A0001C78160122002A4032431A70012340187B
:1023B0004030027813430370002070BD1C78AC439A
:1023C0002243F2E70300002170B500685C689A6858
:1023D0000419403421700D1C01310E005C68A640C8
:1023E00046600E005C68A6404661540605D512039F
:1023F0005968120FFFF7CCFF70BD940705D00A4251
:1024000002D05C68A140816104250124D1082140EB
:10241000A1402943D50602D55D68AC4084605B6865
:102420009206D20F9201C018114340300170E3E7C9
:1024300010B500F0CAF910BD10B50100006800F039
:10244000C4F910BD10B500210120FFF7F1FF10BD48
:1024500010B5FEF71BFCFEF7C5FC10BD704703006E
:1024600000201A5C002A00D170470130F9E7030010
:1024700000201A5C002A01D0884200D17047013048
:10248000F7E7002310B59A4200D110BDCC5CC454CC
:102490000133F8E70300C9B28218934200D17047B4
:1024A00019700133F9E7012040427047F0B54368E5
:1024B00006695B68900702D586204042F0BD012086
:1024C000140C0440844030278446251C1740900398
:1024D00019D5002FF0D16046884054030FD55861BC
:1024E00098600124B0688C40D20519D5AA0717D589
:1024F00020435B184033B06000201D70DEE71403FA
:10250000EED59861ECE7604688405860002FE8D02F
:1025100004252543D40601D59861E2E75861E0E738
:10252000A043E6E7436800205B681B6A0B607047C6
:1025300043685B68186942401140414019610020BE
:102540007047436800205B689961704743680020CA
:102550005B6859617047436800205B68D9617047C8
:1025600010B50369D868002821D088421BD10868BB
:102570001C69D860A14200D1186100200860824225
:1025800006D0DA680A601A69D960002A00D1196198
:10259000002010E0814206D108682060186981425D
:1025A000EBD11C61E9E7040000680028F2D1002AA1
:1025B000E7D11620404210BD0020704710B5436897
:1025C000187AFEF71BFE10BD70B50B00C968050038
:1025D000002903D05E680C68002900D170BD8B68AB
:1025E0001A002A402B4202D030004B689847231E25
:1025F00000D0236821001C00EEE70723C2691A42BD
:10260000FCD1704743681B681A7E520703D500202F
:102610001B8D0B70704710204042FBE743681B681E
:102620001A7ED207FCD51985704710B5436802227F
:1026300018680123448B418BA4081C40114200D030
:102640001443428B1A4201D004231C430723428BBC
:1026500013434383FFF7D1FF200010BD10B502697B
:102660009368002B01D0D168984710BD10B543681E
:102670001C68237EDB07D80F002B05D00020824288
:1026800002DD0B780130238510BD032243681B68EF
:102690009A757047032243681B681A757047436830
:1026A00000201B681A7ED20702D5987DC007C00F94
:1026B0007047436800201B681A7E920702D5987DF8
:1026C0008007C00F7047042243681B689A757047E3
:1026D000042243681B681A75704743681B68187E9C
:1026E0004007C00F704710B5436800201B681C7E70
:1026F000640705D51B8DDBB2824202DD0B70013011
:1027000010BD16204042FBE743681B689A7D187E87
:102710001040431E984170470822436801201B68FF
:102720001A76704703699960DA607047030010B544
:10273000080008221969FFF7A4FE002010BD00223E
:1027400010B511000920FEF777FA0920FEF768FAA4
:1027500010BD002210B511000A20FEF76DFA0A2004
:10276000FEF75EFA10BD002210B511000C20FEF736
:1027700063FA0C20FEF754FA10BD30B503681360FD
:1027800005790468ED006419A34202D30220404297
:1027900030BD5C798C4201D00833F0E70020F7E7C8
:1027A0007047002809D00123C268002051781942DF
:1027B00002D010784242504118407047EFF3108326
:1027C00072B6FEE710B5FFF7F9FFF8B505000E0089
:1027D000EFF3108772B6FFF78BFB3100040028007F
:1027E000FFF7F0FF002F02D162B6BFF36F8F20001A
:1027F000FEF77CFBF8BD10B5FFF74CFE10BD10B521
:10280000FFF73FFE10BD10B5EFF3108372B6FEF771
:10281000FFF9F9E70368426813605A600023036018
:102820004360704710B50400FFF7F4FF0222637B9A
:10283000934363730023A36010BD183870B5040080
:10284000EFF3108572B62823427B1A420BD18368BE
:10285000002B01D0FFF7E6FF1422637B2000934397
:102860006373FFF76FF9002D02D162B6BFF36F8F6C
:1028700070BD10B5EFF3108472B6FFF763F9002C4A
:1028800002D162B6BFF36F8F10BD10B5002805D11D
:10289000EFF30580002802D1FEF710FA10BD62B6F2
:1028A000BFF36F8FFAE710B5EFF3108072B6FFF742
:1028B000ECFF10BD10B5EFF3108472B60368002B67
:1028C00008D0FFF7C9FB0020002C02D162B6BFF38D
:1028D0006F8F10BD16204042F6E770B504000D0062
:1028E000EFF3108672B6FFF78BFB012806DDA042DE
:1028F00004DB00DD20002900FEF7ACFE002E02D133
:1029000062B6BFF36F8F70BD10B5FFF7A7FC10BDA7
:0829100060D9FF7F0100000007
:10291800DD0A000000000000890F000060290000A7
:10292800B925000078290000B92500009029000089
:1029380095130000A829000095130000C029000085
:1029480095130000D829000049120000000000007B
:08295800D5150000000000008D
:102960008E2C00000000000000000000100000207D
:1029700008010020EE2A0000DB2C0000042B0000E0
:102980001C2B00001200002028010020E82A000073
:10299000E92C0000102B00001C2B0000140000206C
:1029A0003C010020E22A0000F72C0000402B000030
:1029B000E82B00001600002050010020DC2A000057
:1029C000072D0000782B0000E82B000018000020E5
:1029D00060010020D62A0000172D0000B02B000057
:1029E000E82B00001A00002070010020D02A00000F
:1029F0000000000045240000000000004524000005
:102A000000000000452400000000000045240000F4
:102A100060290000410F0000000000004524000074
:102A200000000000452400000000000045240000D4
:102A30000000000045240000D82900005D260000A9
:102A4000C02900005D2600000000000045240000B1
:102A5000A82900005D2600000000000045240000B9
:102A60000000000045240000000000004524000094
:102A70000000000045240000000000004524000084
:102A80000000000045240000000000004524000074
:102A90000000000045240000000000004524000064
:102AA0000000000045240000000000004524000054
:102AB0000000000045240000000000004524000044
:102AC0000000000045240000000000004524000034
:102AD00000800080FF7F00800080FF7F00800080FA
:102AE000FF7F00800080FF7F00800080FF7F0080EC
:042AF0000080FF7FE4
:102AF400772C0000000000002C2D000000000000D6
:102B0400FFFFFFFF8044004101000000FFFFFFFFC3
:102B14000044004100000000AD2400002525000011
:102B240031250000432500004D25000057250000F5
:102B34009D12000061250000BD2500000014004224
:102B440000C201000000100000000000200000008E
:102B54001700000067270000602B0000682B0000AE
:102B640001000000702B0000020000000000702330
:102B740000006023000C004200C20100000030008D
:102B840000000000080000001500000053270000AA
:102B9400982B0000A02B000001000000A82B0000CF
:102BA400020000000000302300000023000800425F
:102BB4008025000000003200000000000400000036
:102BC400140000003F270000D02B0000D82B000089
:102BD40001000000E02B0000020000000000B02211
:102BE4000000A022052600001D2600002B26000060
:102BF4007D1400002D2700006D260000E72600004C
:102C04008B260000952600009F260000C7260000A2
:102C1400D1260000B3260000DB26000000000000DF
:102C240000000000092700001927000025270000E4
:102C34000044004180440041F5FFFFFF18290000D3
:102C440018290000582900006029000060290000AC
:102C540060290000617473616D6432315F78707251
:102C64006F0054686520626F617264206973202567
:102C7400730A0063627072696E74665F7061636B7D
:102C840061676500286E696C2900656963403430AA
:102C9400303031383030000001020304050607FFEC
:102CA400090A0B0C0D0E0F00010203040506070CA4
:102CB4000DFF0F08FF0A0B000102030405060708B5
:102CC400090A0B0C0D0E0F0001FFFFFFFF0607FFA3
:102CD400FFFFFFFFFF0E0F6770696F403431303024
:102CE40034343830006770696F40343130303434F4
:102CF400303000736572636F6D403432303031347C
:102D0400303000736572636F6D403432303030633D
:102D1400303000736572636F6D4034323030303858
:102D24003030006D61696E006F73002A2A2A2042D8
:102D34006F6F74696E67205A6570687972204F539B
:102D4400206275696C64207A65706879722D7633B7
:102D54002E322E302D343031342D6734313838331F
:102D640032393330346362202A2A2A0A00000000F0
:102D74009B220000A7240000080000200800002077
:0C2D840000000000000000000000000043
:042D900015E015E055
:0400000300000EC526
:00000001FF
